{
  "contractName": "Artify",
  "abi": [
    {
      "anonymous": false,
      "inputs": [
        {
          "indexed": false,
          "internalType": "uint256",
          "name": "id",
          "type": "uint256"
        },
        {
          "indexed": false,
          "internalType": "string",
          "name": "hash",
          "type": "string"
        },
        {
          "indexed": false,
          "internalType": "string",
          "name": "description",
          "type": "string"
        },
        {
          "indexed": false,
          "internalType": "uint256",
          "name": "tipAmount",
          "type": "uint256"
        },
        {
          "indexed": false,
          "internalType": "address payable",
          "name": "author",
          "type": "address"
        }
      ],
      "name": "ImageCreated",
      "type": "event"
    },
    {
      "anonymous": false,
      "inputs": [
        {
          "indexed": false,
          "internalType": "uint256",
          "name": "id",
          "type": "uint256"
        },
        {
          "indexed": false,
          "internalType": "string",
          "name": "hash",
          "type": "string"
        },
        {
          "indexed": false,
          "internalType": "string",
          "name": "description",
          "type": "string"
        },
        {
          "indexed": false,
          "internalType": "uint256",
          "name": "tipAmount",
          "type": "uint256"
        },
        {
          "indexed": false,
          "internalType": "address payable",
          "name": "author",
          "type": "address"
        }
      ],
      "name": "ImageTipped",
      "type": "event"
    },
    {
      "constant": true,
      "inputs": [],
      "name": "imageCount",
      "outputs": [
        {
          "internalType": "uint256",
          "name": "",
          "type": "uint256"
        }
      ],
      "payable": false,
      "stateMutability": "view",
      "type": "function"
    },
    {
      "constant": true,
      "inputs": [
        {
          "internalType": "uint256",
          "name": "",
          "type": "uint256"
        }
      ],
      "name": "images",
      "outputs": [
        {
          "internalType": "uint256",
          "name": "id",
          "type": "uint256"
        },
        {
          "internalType": "string",
          "name": "hash",
          "type": "string"
        },
        {
          "internalType": "string",
          "name": "description",
          "type": "string"
        },
        {
          "internalType": "uint256",
          "name": "tipAmount",
          "type": "uint256"
        },
        {
          "internalType": "address payable",
          "name": "author",
          "type": "address"
        }
      ],
      "payable": false,
      "stateMutability": "view",
      "type": "function"
    },
    {
      "constant": false,
      "inputs": [
        {
          "internalType": "string",
          "name": "_imgHash",
          "type": "string"
        },
        {
          "internalType": "string",
          "name": "_description",
          "type": "string"
        }
      ],
      "name": "uploadImage",
      "outputs": [],
      "payable": false,
      "stateMutability": "nonpayable",
      "type": "function"
    },
    {
      "constant": false,
      "inputs": [
        {
          "internalType": "uint256",
          "name": "_id",
          "type": "uint256"
        }
      ],
      "name": "tipImageOwner",
      "outputs": [],
      "payable": true,
      "stateMutability": "payable",
      "type": "function"
    }
  ],
  "bytecode": "0x6080604052600060015534801561001557600080fd5b50610bae806100256000396000f3fe60806040526004361061003f5760003560e01c806384856482146100445780638567ade8146101a557806392053b63146101d3578063a91b8314146101fe575b600080fd5b34801561005057600080fd5b5061007d6004803603602081101561006757600080fd5b810190808035906020019092919050505061035d565b6040518086815260200180602001806020018581526020018473ffffffffffffffffffffffffffffffffffffffff1673ffffffffffffffffffffffffffffffffffffffff168152602001838103835287818151815260200191508051906020019080838360005b838110156100ff5780820151818401526020810190506100e4565b50505050905090810190601f16801561012c5780820380516001836020036101000a031916815260200191505b50838103825286818151815260200191508051906020019080838360005b8381101561016557808201518184015260208101905061014a565b50505050905090810190601f1680156101925780820380516001836020036101000a031916815260200191505b5097505050505050505060405180910390f35b6101d1600480360360208110156101bb57600080fd5b81019080803590602001909291905050506104e3565b005b3480156101df57600080fd5b506101e86107e3565b6040518082815260200191505060405180910390f35b34801561020a57600080fd5b5061035b6004803603604081101561022157600080fd5b810190808035906020019064010000000081111561023e57600080fd5b82018360208201111561025057600080fd5b8035906020019184600183028401116401000000008311171561027257600080fd5b91908080601f016020809104026020016040519081016040528093929190818152602001838380828437600081840152601f19601f820116905080830192505050505050509192919290803590602001906401000000008111156102d557600080fd5b8201836020820111156102e757600080fd5b8035906020019184600183028401116401000000008311171561030957600080fd5b91908080601f016020809104026020016040519081016040528093929190818152602001838380828437600081840152601f19601f8201169050808301925050505050505091929192905050506107e9565b005b6000602052806000526040600020600091509050806000015490806001018054600181600116156101000203166002900480601f01602080910402602001604051908101604052809291908181526020018280546001816001161561010002031660029004801561040f5780601f106103e45761010080835404028352916020019161040f565b820191906000526020600020905b8154815290600101906020018083116103f257829003601f168201915b505050505090806002018054600181600116156101000203166002900480601f0160208091040260200160405190810160405280929190818152602001828054600181600116156101000203166002900480156104ad5780601f10610482576101008083540402835291602001916104ad565b820191906000526020600020905b81548152906001019060200180831161049057829003601f168201915b5050505050908060030154908060040160009054906101000a900473ffffffffffffffffffffffffffffffffffffffff16905085565b6000811180156104f557506001548111155b6104fe57600080fd5b610506610a8f565b6000808381526020019081526020016000206040518060a001604052908160008201548152602001600182018054600181600116156101000203166002900480601f0160208091040260200160405190810160405280929190818152602001828054600181600116156101000203166002900480156105c65780601f1061059b576101008083540402835291602001916105c6565b820191906000526020600020905b8154815290600101906020018083116105a957829003601f168201915b50505050508152602001600282018054600181600116156101000203166002900480601f0160208091040260200160405190810160405280929190818152602001828054600181600116156101000203166002900480156106685780601f1061063d57610100808354040283529160200191610668565b820191906000526020600020905b81548152906001019060200180831161064b57829003601f168201915b50505050508152602001600382015481526020016004820160009054906101000a900473ffffffffffffffffffffffffffffffffffffffff1673ffffffffffffffffffffffffffffffffffffffff1673ffffffffffffffffffffffffffffffffffffffff168152505090506000816080015190508073ffffffffffffffffffffffffffffffffffffffff166108fc349081150290604051600060405180830381858888f19350505050158015610722573d6000803e3d6000fd5b50348260600181815101915081815250508160008085815260200190815260200160002060008201518160000155602082015181600101908051906020019061076c929190610ad4565b506040820151816002019080519060200190610789929190610ad4565b506060820151816003015560808201518160040160006101000a81548173ffffffffffffffffffffffffffffffffffffffff021916908373ffffffffffffffffffffffffffffffffffffffff160217905550905050505050565b60015481565b60008251116107f757600080fd5b600081511161080557600080fd5b600073ffffffffffffffffffffffffffffffffffffffff163373ffffffffffffffffffffffffffffffffffffffff16141561083f57600080fd5b600180600082825401925050819055506040518060a001604052806001548152602001838152602001828152602001600081526020013373ffffffffffffffffffffffffffffffffffffffff1681525060008060015481526020019081526020016000206000820151816000015560208201518160010190805190602001906108c9929190610ad4565b5060408201518160020190805190602001906108e6929190610ad4565b506060820151816003015560808201518160040160006101000a81548173ffffffffffffffffffffffffffffffffffffffff021916908373ffffffffffffffffffffffffffffffffffffffff1602179055509050507fc1d8dfa99b3f84f95d3f0bc4a768addeb97b83b20aef7f9cb6729e126bafd2f960015483836000336040518086815260200180602001806020018581526020018473ffffffffffffffffffffffffffffffffffffffff1673ffffffffffffffffffffffffffffffffffffffff168152602001838103835287818151815260200191508051906020019080838360005b838110156109e65780820151818401526020810190506109cb565b50505050905090810190601f168015610a135780820380516001836020036101000a031916815260200191505b50838103825286818151815260200191508051906020019080838360005b83811015610a4c578082015181840152602081019050610a31565b50505050905090810190601f168015610a795780820380516001836020036101000a031916815260200191505b5097505050505050505060405180910390a15050565b6040518060a0016040528060008152602001606081526020016060815260200160008152602001600073ffffffffffffffffffffffffffffffffffffffff1681525090565b828054600181600116156101000203166002900490600052602060002090601f016020900481019282601f10610b1557805160ff1916838001178555610b43565b82800160010185558215610b43579182015b82811115610b42578251825591602001919060010190610b27565b5b509050610b509190610b54565b5090565b610b7691905b80821115610b72576000816000905550600101610b5a565b5090565b9056fea265627a7a72315820e8268a38a3b988202ef136de700609014d03d617d59c859fc287fa6e74086e6864736f6c63430005100032",
  "source": "// SPDX-License-Identifier: MIT\r\npragma solidity >=0.4.21;\r\n\r\ncontract Artify{\r\n    //Store Images\r\n    mapping(uint=>Image) public images;\r\n    uint public imageCount=0;\r\n\r\n    struct Image{\r\n        uint id;\r\n        string hash;\r\n        string description;\r\n        uint tipAmount;\r\n        address payable author;\r\n    }\r\n    event ImageCreated(\r\n        uint id,\r\n        string hash,\r\n        string description,\r\n        uint tipAmount,\r\n        address payable author\r\n    );\r\n    event ImageTipped(\r\n        uint id,\r\n        string hash,\r\n        string description,\r\n        uint tipAmount,\r\n        address payable author\r\n    );\r\n\r\n    //Create Image\r\n    function uploadImage(string memory _imgHash,string memory _description) public{\r\n        //Valid data input\r\n        require(bytes(_imgHash).length > 0);\r\n        require(bytes(_description).length > 0);\r\n        require(msg.sender != address(0x0));\r\n\r\n        imageCount+=1;\r\n        images[imageCount]=Image(imageCount,_imgHash,_description,0,msg.sender);\r\n\r\n        //Emit Event\r\n        emit ImageCreated(imageCount,_imgHash,_description,0,msg.sender);\r\n    }\r\n\r\n    //Tip Image\r\n    function tipImageOwner(uint _id) public payable{\r\n        //Check if ID is valid\r\n        require(_id>0 && _id<=imageCount);\r\n\r\n        Image memory _image=images[_id];\r\n        address payable _author=_image.author;\r\n\r\n        //Send the tip to author (msg.value is ether value from tipper)\r\n        address(_author).transfer(msg.value);\r\n\r\n        _image.tipAmount+=msg.value;\r\n        //Back on Smart Contract from memory\r\n        images[_id]=_image;\r\n    }\r\n}",
  "sourcePath": "D:/Term/Repos/artify/contracts/Artify.sol",
  "compiler": {
    "name": "solc",
    "version": "0.5.16+commit.9c3226ce.Emscripten.clang"
  },
  "schemaVersion": "3.4.1",
  "updatedAt": "2021-10-19T13:21:37.451Z",
  "networkType": "ethereum",
  "devdoc": {
    "methods": {}
  },
  "userdoc": {
    "methods": {}
  }
}